:020000040800F2
:10000000000002207D4B0108054B0108094B010847
:100010000D4B0108114B0108154B010800000000B1
:1000200000000000000000000000000099B8000877
:10003000194B0108000000001DB900081D4B010804
:10004000CD4B0108CD4B0108CD4B0108CD4B01082C
:10005000CD4B0108CD4B0108CD4B0108CD4B01081C
:10006000CD4B0108CD4B0108CD4B0108CD4B01080C
:10007000CD4B0108CD4B0108CD4B0108CD4B0108FC
:10008000CD4B0108CD4B0108CD4B0108CD4B0108EC
:10009000CD4B0108CD4B0108CD4B0108CD4B0108DC
:1000A000CD4B0108CD4B0108CD4B0108CD4B0108CC
:1000B000CD4B0108CD4B0108CD4B0108CD4B0108BC
:1000C000CD4B0108CD4B0108CD4B0108CD4B0108AC
:1000D000CD4B0108CD4B0108CD4B0108CD4B01089C
:1000E000314B0108CD4B0108CD4B0108CD4B010828
:1000F000CD4B0108CD4B0108CD4B0108CD4B01087C
:10010000CD4B0108CD4B0108CD4B0108CD4B01086B
:10011000CD4B0108CD4B0108CD4B0108CD4B01085B
:10012000CD4B0108CD4B0108CD4B0108CD4B01084B
:10013000CD4B0108294B0108CD4B0108CD4B0108DF
:10014000CD4B0108CD4B0108CD4B0108CD4B01082B
:10015000CD4B0108CD4B0108CD4B0108CD4B01081B
:10016000CD4B0108CD4B0108CD4B0108CD4B01080B
:10017000CD4B0108CD4B0108CD4B0108000000001C
:04018000CD4B01085A
:1001880070B44C1E4A2C2CD8DFE804F03C3C3C3CB4
:100198002B2B2B2B26263C262626262626262626CD
:1001A8002626262B27272727272727273C262626C4
:1001B80026262B26273D3C2B3C27273D2B2B262666
:1001C8003C3C3C3C3C263C3C263C2B2B2626262B08
:1001D8002B2B2626263C3C00CAB144698569AC42D3
:1001E80002DB002070BC704704EB4405066901344B
:1001F800AD00446174190CD071556260A36020464B
:1002080070BC70471AB1002BE7D11846EAE71046D0
:10021800E8E72046E6E700BF30B443698469A342B3
:1002280009DA03EB430405690133A40043612B1980
:1002380001D001B112B930BC002070470020285508
:1002480059609A60184630BC704700BFF8B5C3685B
:10025800154604460E461A780F4616E0562A24D04C
:100268004B2A2FD1236B002D03F10603E160236392
:1002780014BF1E211B21002213462046FFF780FFD2
:100288003860F0B1E368071D1A78722A03F101019A
:10029800E4D1226B002D03F1010302F10902E360AE
:1002A800226314BF1C211921E5E7226B002D03F1FD
:1002B800010302F10902E360226314BF1D211A2120
:1002C800D9E7F8BDADB9462A13D1B74211D01D20E0
:1002D8001E211C2207E01B2B0DD0192B00D13270D8
:1002E8000436B74205D0366833781A2BF3D130700C
:1002F800F6E73846F8BD3170F2E700BF10B4C368BE
:100308000A46197852290FD04F2903D010465DF8B4
:10031800044B7047046B2021033404630133C3602A
:100328005DF8044B00232BE7046B1F2102340463A0
:10033800F4E700BFC2681378532B01D00020704740
:100348002DE9F041531CC3605378EBB1931CC36093
:1003580054785F2C26D10023026A934211D2826A14
:10036800C1690132826251F82300BDE8F0810121A0
:10037800424B03F1C4051A78A2423CD01C33AB426D
:10038800F9D10020BDE8F0811C4683681B07EED434
:100398000029EDD0C3681978433901298CBF0021A1
:1003A8000121E5E7A4F13005EBB2092B60D8002163
:1003B8000DE0303B9942E4D8C2681478511C1CB156
:1003C800C16014785F2C14D01946A4F13005EDB241
:1003D800A4F1410201EBC103092DD2B204EB83035E
:1003E800E7D9192ACDD801EBC10204EB8203373BC8
:1003F800E0E70133B0E75A69002A34D044698569D7
:10040800D3F818C0AC422CDA04EB4406D0F810E05C
:10041800B60001341EEB0607446127D04FF01808D8
:100428000EF806803E467A60C7F808C0C662A9B1D1
:10043800DE681969026BA5420A440263A1DD04EB78
:1004480044020569631C92004361AB1899D01820D7
:10045800A8545E6099601846BDE8F0815E689968A6
:10046800E8E70026E2E785694469E0E73E46DDE71C
:10047800A4F14103192B9AD987E700BFA8E1020824
:1004880070B505460E461446002A48D02378013B2D
:100498004A2B2AD8DFE803F03535353E29292626A8
:1004A8003535353535353535353535353535352900
:1004B800353535353535353535352E2E35352935FE
:1004C80035353535353535352926353535353535EF
:1004D8003535353535352929352A2A2A2A29353514
:1004E80035353500A468002CD0D170BD6468002C67
:1004F800CCD1FAE762681378052B03D1336801334E
:100508003360626828463146FFF7BAFFA468002CBA
:10051800BCD1EAE72B6801332B606268F2E770BD53
:10052800D0F8003170B5FF2B04460D4606D05A1C92
:10053800C4F80021E55484F8045170BD002619461A
:10054800D0F80C21D0F8083180F8FF60984733467E
:10055800D4F8201101221144C4F82011C4F8002154
:10056800E55484F8045170BD70B4036819786E2995
:100578001AD000252E46A1F13003092B88BF00238D
:100588000DD8026800230132026003EB830301EBFC
:1005980043031178303BA1F13004092CF3D983EAE5
:1005A8000600284470BC70475A1C0260597801251F
:1005B8004FF0FF36DFE700BF43698269934214DAE0
:1005C80003EB43020169920010B501338C184361B3
:1005D80008D040238B540C30FFF7C6FF23466060D9
:1005E800184610BD2346184610BD0023184670470C
:1005F80010B5C36804461A785F2A0BD06E2A06D055
:100608000C30FFF7B1FFE3681A785F2A06D04FF085
:10061800FF3010BD00200133E36010BD0130FAE760
:1006280038B5C36804461A78542A01D0002038BD6A
:100638000133C360FFF7DCFF051EF7DBA26A6369BD
:10064800A16901328B42A262F0DA03EB430221690D
:100658000133920063618B18E8D005248C545D60E7
:10066800184638BD08B5C3681A785F2A01D001203A
:1006780008BD013340F80C3FFFF776FFC043C00FB9
:1006880008BD00BF70B504460C30FFF76DFF061EAD
:1006980032DDE56863685B1B9E422FDCA268AB19FC
:1006A8005207E36015D4092E0CDD284614490822A8
:1006B80024F062FA30B92B7A2E2B10D05F2B0ED093
:1006C800242B0CD0294632462046FFF7A5FDE062D0
:1006D80070BDAA5D242A04BF0133E360E3E76B7AA7
:1006E8004E2BEFD1236B204616339E1B26630549FC
:1006F8001522FFF791FDEAE7002070BD0020E6E72C
:10070800E0E80208ECE8020838B5044629B9C368ED
:100718001A7832B15A1CC2601978682912D0762921
:1007280001D0002038BD04F10C052846FFF71CFF56
:10073800E3681A785F2AF4D10133E3602846FFF7AB
:1007480013FF03E004F10C00FFF70EFFE3681A78CB
:100758005F2AE6D10133E360012038BDD0F81031BB
:100768000246C3B15A680B68906870B102782F2AA4
:100778000DD1002B04DC09E002782F2A07D143B100
:100788008068013B0028F7D17047704701D00020EE
:1007980070474068704701211846C2F81811704721
:1007A80038B505460C4691B323784A2B27D8DFE89D
:1007B80003F02E26262626302E2B2B262626262606
:1007C800262626262626262626262E2626262626B9
:1007D8002626262626262626262E262626262626A9
:1007E8002626262E2B262626262626262626262694
:1007F800262E262626262E262E26262E2E0028466D
:100808006168FFF7CDFF18B9A468002CCCD100208F
:1008180038BD2846211DFFF7A1FF0028F7D003782F
:100828002F2BF4D138BD00BFF0B55368946801335D
:100838000B44A34283B015460E46074613D8EC680E
:100848000CB103B0F0BD95E80900324639461844AA
:1008580024F0A2F92B686A6833449C546B681E44E0
:100868006E6003B0F0BDD268002AEAD11CB9022B31
:100878004FF0020402D96400A342FCD8286821463C
:1008880024F06AFD10B12860AC60D8E701902868B0
:1008980024F010F9019B01222B606B60AB60EA60C9
:1008A800CFE700BF2DE9F041044608460D4625F084
:1008B80043FB50B3D4F800112F184FF0000809E09B
:1008C8000B46BD4201F10101C4F80011E65484F859
:1008D80004611AD0FF2915F8016BF1D1D4F8083159
:1008E80084F8FF802046D4F80C219847D4F82031AA
:1008F80001210B44C4F82031BD424FF00003C4F875
:100908000011E65484F80461E4D1BDE8F08100BF29
:100918002DE9F04188B00A4604461B4901A824F095
:10092800ABFD01A825F008FB58B301ADD4F80011C0
:100938002F184FF0000809E00B46BD4201F10101F4
:10094800C4F80011E65484F804611AD0FF2915F898
:10095800016BF1D1D4F8083184F8FF802046D4F82F
:100968000C219847D4F8203101210B44C4F82031D8
:10097800BD424FF00003C4F80011E65484F8046146
:10098800E4D108B0BDE8F081ECBC020813782DE989
:10099800F047033B1546044688462A2B00F2B981E6
:1009A800DFE813F05100B701B701B701B701B7018C
:1009B800B701B701B701B701B701B701B701B7016F
:1009C800B701B701B701B701B701B701B701B7015F
:1009D80055007B00A10055007B00A100C600DE0089
:1009E800160128012E01310134015901B701B7015F
:1009F800B701B7017E01B7012B00DD4ED0F8001119
:100A080006F10A0A4FF0000909E00B460131564584
:100A1800C4F80011E75484F8047100F08681FF29B6
:100A280016F8017BF1D1D4F8083184F8FF902046FC
:100A3800D4F80C219847D4F8203101210B44C4F88C
:100A480020310023E3E76A68BDE8F04714E2C94DA6
:100A5800D0F8001105F109074FF0000809E00B462E
:100A68000131BD42C4F80011E65484F8046100F075
:100A78006E81FF2915F8016FF1D1D4F8083184F897
:100A8800FF802046D4F80C219847D4F82031012162
:100A98000B44C4F820310023E3E7B74DD0F8001128
:100AA80005F109074FF0000809E00B460131BD4286
:100AB800C4F80011E65484F8046100F04A81FF2963
:100AC80015F8016FF1D1D4F8083184F8FF80204679
:100AD800D4F80C219847D4F8203101210B44C4F8EC
:100AE80020310023E3E7A54DD0F80011AF1D4FF0EA
:100AF800000809E00B460131BD42C4F80011E65474
:100B080084F8046100F00981FF2915F8016BF1D11F
:100B1800D4F8083184F8FF802046D4F80C2198478F
:100B2800D4F8203101210B44C4F820310023E3E735
:100B3800D0F80031FF2B00F04C81591C2022C4F85A
:100B48000011E25484F80421FF2900F021814A1C95
:100B58002623C4F80021635484F80431BDE8F087E3
:100B6800D0F80031FF2B00F05681591C2022C4F820
:100B78000011E25484F80421814D4FF00008AF1CA5
:100B880009E00B46BD4201F10101C4F80011E65429
:100B980084F804611AD0FF2915F8016BF1D1D4F853
:100BA800083184F8FF802046D4F80C219847D4F8FF
:100BB800203101210B44C4F82031BD424FF000031D
:100BC800C4F80011E65484F80461E4D1BDE8F08764
:100BD800D0F80011FF2900F0EC804A1C2023C4F84B
:100BE8000021635484F804314146AA682046BDE8D0
:100BF800F04741E111F0040800F0AD80BDE8F0874E
:100C0800D0F80011A0E7D0F80011B5E75D4DD0F895
:100C1800001105F108074FF0000808E00B46013104
:100C2800BD42C4F80011E65484F8046177D0FF2966
:100C380015F8016FF2D1D4F8083184F8FF80204606
:100C4800D4F80C219847D4F8203101210B44C4F87A
:100C580020310023E4E74C4DD0F8001105F10A07D4
:100C68004FF0000808E00B460131BD42C4F80011FE
:100C7800E65484F8046156D0FF2915F8016BF2D1C7
:100C8800D4F8083184F8FF802046D4F80C2198471E
:100C9800D4F8203101210B44C4F820310023E4E7C3
:100CA80090F80431282B0BD0D0F80011FF2900F060
:100CB800C3804A1C2023C4F80021635484F80431FB
:100CC8006A68324D4146204600F0D6F8EF1CD4F849
:100CD80000114FF0000808E00B460131BD42C4F88E
:100CE8000011E65484F804611BD0FF2915F8016B44
:100CF800F2D1D4F8083184F8FF802046D4F80C21CA
:100D08009847D4F8203101210B44C4F8203100233E
:100D1800E4E72A46BDE8F047AEE0BDE8F087BDE865
:100D2800F087BDE8F087BDE8F08741466A6820464D
:100D380000F0A2F8D4F80011FF295BD04A1C29233F
:100D4800C4F80021635484F80431BDE8F087BDE895
:100D5800F087BDE8F087D0F80011FF297CD04A1C45
:100D68002A23C4F80021635484F80431BDE8F087CD
:100D780040E9020803E902080FE902081CE9020831
:100D8800FCBE020823E9020830E902083CE902082F
:100D98000025D4F80831D4F80C2184F8FF502046F7
:100DA8009847D4F82031012213442946C4F8203149
:100DB800CEE60026D0F80831D4F80C2180F8FF6080
:100DC8009847D4F82031012213443146C4F8203121
:100DD80004E700251946D4F80C21D0F8083180F82A
:100DE800FF509847D4F8202101210A442B46C4F823
:100DF8002021A3E60025D4F80831D4F80C2184F882
:100E0800FF5020469847D4F8203101221344294640
:100E1800C4F8203193E700251946D4F80C21D0F8FE
:100E2800083180F8FF509847D4F8202101210A445E
:100E38002B46C4F8202199E60026D0F80831D4F8CA
:100E48000C2180F8FF609847D4F820310122134420
:100E58003146C4F820312DE7D0F80831D4F80C21F8
:100E680080F8FF809847D4F8203101221344414686
:100E7800C4F8203174E700BF2DE9F04F044695B05F
:100E88001546002A00F09D80D0F81831002B40F05C
:100E9800908013780E464B2B01F20880DFE813F0A0
:100EA80022060C060C064E06D805C0057C057705FB
:100EB8006D056305590546053C05320528051E05DF
:100EC8001405410737072D072307FC07D607FC063B
:100ED800D306BC07BC07BC07AA07AA07AA07AA0724
:100EE800AA07AA07AA0778077807AA07AA074B0735
:100EF8000F05FA048D047104590371043103310399
:100F08009C030703E002B902B502A3020004EB0345
:100F1800B303AF03AF034C004C004A049A028D029E
:100F28002002F901D201AB01840106085E016602C4
:100F38003701EB00C10097006A681178272941F052
:100F48007B815268177C5FB1062F41F27F84072F9F
:100F580006D1AA68117819B99168012901F05A8651
:100F6800D4F80011FF2901F057844A1C2823C4F83B
:100F78000021635484F8043131466A682046FFF73B
:100F88007BFFD4F80011FF2901F033844A1C292380
:100F9800C4F80021635484F804312B783C2B01F009
:100FA8000585082F204601F0F3843146AA68FFF72B
:100FB80063FF15B0BDE8F08FB8F1000F01D0C4F899
:100FC80010710123C4F8183115B0BDE8F08FCD4F6A
:100FD8006A68FFF751FF07F1080AD4F800114FF0CB
:100FE80000090AE00B4601315745C4F8001104F81E
:100FF800038084F8048100F09587FF2917F8018F92
:10100800F0D1D4F8083184F8FF902046D4F80C21A8
:101018009847D4F8203101210B44C4F8203100232B
:10102800E2E7B94F6A68FFF727FF07F1050AD4F826
:1010380000114FF000090AE00B4601315745C4F88A
:10104800001104F8038084F8048100F0D187FF2997
:1010580017F8018BF0D1D4F8083184F8FF902046B6
:10106800D4F80C219847D4F8203101210B44C4F856
:1010780020310023E2E76968FFF792FB4FF0000890
:10108800002801F0A08503782F2B41F0CD8043681C
:10109800002B01F0C980806808F101080028F2D10E
:1010A8006B6800930027B94608F1FF33DFF878A290
:1010B8000193C4F81C7120463146009AFFF7DCFE04
:1010C800019B9F4280F21D87D4F80011DFF85CB2C3
:1010D80009E00B460131D345C4F80011E55484F802
:1010E800045100F00E87FF291BF8015BF1D1D4F8F9
:1010F800083184F8FF902046D4F80C219847D4F89A
:10110800203101210B44C4F820310023E3E77F4F4D
:10111800D0F8001107F11A0A4FF000090AE00B464F
:1011280001315745C4F8001104F8038084F804819C
:1011380000F06987FF2917F8018FF0D1D4F808313A
:1011480084F8FF902046D4F80C219847D4F8203131
:1011580001210B44C4F820310023E2E76C4ED0F89B
:10116800001106F10E094FF0000809E00B460131A5
:101178004E45C4F80011E75484F8047100F09B87C9
:10118800FF2916F8017FF1D1D4F8083184F8FF80DF
:101198002046D4F80C219847D4F8203101210B447B
:1011A800C4F820310023E3E75A4FD0F8001107F1C3
:1011B800080A4FF000090AE00B4601315745C4F808
:1011C800001104F8038084F8048100F0B087FF2937
:1011D80017F8018FF0D1D4F8083184F8FF90204631
:1011E800D4F80C219847D4F8203101210B44C4F8D5
:1011F80020310023E2E7484FD0F8001107F11C0A1C
:101208004FF000090AE00B4601315745C4F80011B8
:1012180004F8038084F8048100F0E386FF2917F8B6
:10122800018FF0D1D4F8083184F8FF902046D4F823
:101238000C219847D4F8203101210B44C4F82031FF
:101248000023E2E7354FD0F8001107F11D0A4FF0EF
:1012580000090AE00B4601315745C4F8001104F8AB
:10126800038084F8048100F0D287FF2917F8018FE2
:10127800F0D1D4F8083184F8FF902046D4F80C2136
:101288009847D4F8203101210B44C4F820310023B9
:10129800E2E7234FD0F8001107F10A0A4FF00009DE
:1012A8000AE00B4601315745C4F8001104F80380E1
:1012B80084F8048100F08286FF2917F8018BF0D1A9
:1012C800D4F8083184F8FF902046D4F80C219847C8
:1012D800D4F8203101210B44C4F820310023E2E77F
:1012E8006A6804A80F4924F0C7F804A824F024FE6B
:1012F80000283FF45EAE04ADD4F800112F184FF06B
:1013080000081FE0A3EB02084CE90208A3EA020860
:1013180093EB020883EB020863EB020843EB020835
:101328002CEB0208ECBC0208DAEA0208D8EA020848
:101338000B460131BD42C4F80011E65484F804613B
:101348003FF437AEFF2915F8016BF1D1D4F8083115
:1013580084F8FF802046D4F80C219847D4F820312F
:1013680001210B44C4F820310023E3E7C44FD0F82F
:10137800001107F1160A4FF000090AE00B46013187
:101388005745C4F8001104F8038084F8048100F07C
:101398008B86FF2917F8018FF0D1D4F8083184F82B
:1013A800FF902046D4F80C219847D4F82031012129
:1013B8000B44C4F820310023E2E7D0F800112D795E
:1013C800FF2901F0AD814B1CC4F80031655484F845
:1013D8000451EEE56A68FFF74FFD20463146AA68DA
:1013E800FFF74AFDE5E56F68AD683B78312B01F002
:1013F8008280332B01F0C1803A4601F0B1FF2046CC
:1014080031462A4601F0EAFFD3E56A6801F0A8FFF1
:10141800CFE59C4FD0F8001107F1090A4FF00009F9
:101428000AE00B4601315745C4F8001104F803805F
:1014380084F8048100F0EE85FF2917F8018FF0D1B8
:10144800D4F8083184F8FF902046D4F80C21984746
:10145800D4F8203101210B44C4F820310023E2E7FD
:10146800884FD0F8001107F1090A4FF000090AE087
:101478000B4601315745C4F8001104F8038084F87D
:10148800048100F0CE85FF2917F8018FF0D1D4F838
:10149800083184F8FF902046D4F80C219847D4F8F6
:1014A800203101210B44C4F820310023E2E7D5F8AC
:1014B8000480754DD8F80870D0F8001105F1080AB5
:1014C8004FF0000909E00B4601315545C4F80011F9
:1014D800E65484F8046100F0AB85FF2915F8016F24
:1014E800F1D1D4F8083184F8FF902046D4F80C21C3
:1014F8009847D4F8203101210B44C4F82031002347
:10150800E3E76A680AB1FFF7B7FCAB68002B3FF462
:1015180050ADD4F80011FD2901F25C8020465B49EA
:10152800FFF7C0F93146AA682046D4F82051D4F80C
:101538000061FFF7A1FCD4F82031AB427FF439AD4C
:10154800D4F80031B3427FF434AD023BC4F8003123
:101558002FE5B5F90A30002B40F049876A684C4BF3
:101568005168994200F03F8731462046FFF784FCD6
:10157800D4F80031FF2B01F0E081591C2022C4F877
:101588000011E25484F80421B5F90830002B00F06A
:10159800E486404D4FF00008AF1D09E00B460131CD
:1015A800BD42C4F80011E65484F804613FF401AD6B
:1015B800FF2915F8016BF1D1D4F8083184F8FF80C0
:1015C8002046D4F80C219847D4F8203101210B4447
:1015D800C4F820310023E3E76A68AD680AB1FFF771
:1015E8004BFC20467B21FEF79BFF204631462A46CE
:1015F800FFF742FC20467D21FEF792FFD9E4012344
:10160800C0F81831D5E4AB681A78392A7FF4D9AC18
:101618009F683A783A2A7FF4D4ACD5F804A01E49DA
:10162800DAF80420D3F804801068D7F80490BD686D
:1016380009F0DCF9002801F0438220461749FFF73A
:1016480031F9D8F8043043B120463146424601F01A
:10165800C5FE20462021FEF763FF4A462046314654
:10166800FFF70AFC002D3FF4A4AC204631462A4679
:1016780001F0B4FE9DE40123C0F8183199E400BFDD
:10168800A7EA0208E7EA0208DBEA0208D8EA020841
:101698000CE30208C8EA020804EB020808EB020897
:1016A800AB681A78372A7FF48CAC6A685168086886
:1016B8004778632F01F080811278312A00F0FB838C
:1016C8001F46CA4909F092F97A6818B91378032BAA
:1016D80001F010822046314601F080FE6F68C4494F
:1016E8007B68D3F80080404609F080F9002801F0B3
:1016F800C1814046BD4909F079F9002841F0CA8105
:10170800AB6831469A68204601F068FE6B681A7823
:10171800312A7FF44EAC5B689A68012A7FF449ACA1
:101728005B681B783E2B7FF444AC20462921FEF7EA
:10173800F7FE3EE4AF4FD0F8001107F10E0A4FF064
:1017480000090AE00B4601315745C4F8001104F8B6
:10175800038084F8048100F0A084FF2917F8018F22
:10176800F0D1D4F8083184F8FF902046D4F80C2141
:101778009847D4F8203101210B44C4F820310023C4
:10178800E2E7D0F8142114AB43F8402DC0F8143127
:10179800D0F810710023AA68069305950797FFF7FC
:1017A8006BFB069B23B931462A462046FFF7EEF825
:1017B800049BC4F81431FFF7FCBBD0F814910DF169
:1017C800500A4F46D0F810214AF8409D0023CDF822
:1017D8000090C0F814A1059507920693002F01F018
:1017E80060817B681B78193B022B01F25A81AC4659
:1017F8004FF00108554604E07B681B78193B022B23
:101808001ED8BB684FEA0819BBB9B8F1030F00F23C
:10181800CB8797E80F000DF1500E0EEB090BABF1DB
:10182800400E8EE80F004BF8405C01230AEB0905D7
:10183800C4F8145108F10108BB603F68002FDBD1E0
:10184800DCF80820204631466546FFF715FB009A6C
:10185800069BC4F81421002B7FF4ABABB8F1010F41
:1018680001F0F5800AEB081A5AF80C2C08F1FF3839
:1018780020463146FFF78AF8B8F1010FAAF1100A9D
:10188800F2D1D4F81431204631462A1D01F0DEFB8E
:10189800FFF78FBB8B0600F186856B681BB116F0CE
:1018A800400300F0868726F06006314605F10802FD
:1018B8002046D4F8143101F0F1F9FFF77ABB6A68D1
:1018C800FFF7DAFAFFF775BB4B49FEF7EBFF204647
:1018D80031466A68FFF7D0FAFFF76BBB4749FEF756
:1018E800E1FF204631466A68FFF7C6FAFFF761BB99
:1018F8004349FEF7D7FF204631466A68FFF7BCFA2E
:10190800FFF757BB3F49FEF7CDFF204631466A68CF
:10191800FFF7B2FAFFF74DBB3B49FEF7C3FF20467E
:1019280031466A68FFF7A8FAFFF743BB3749FEF765
:10193800B9FF6A6820463146FFF79EFA20463449C7
:10194800FEF7B0FF20463146AA68FFF795FAFFF781
:1019580030BB3049FEF7A6FF204631466A68FFF7DC
:101968008BFAFFF726BB2C49FEF79CFF2046314631
:101978006A68FFF781FAFFF71CBB7E21FEF7D0FDEE
:1019880020463146AA68FFF777FAFFF712BBAA6824
:10199800FFF772FAFFF70DBBD5F80490B9F1000F05
:1019A80040F04D841D4DD0F800112F1D09E00B4665
:1019B8000131BD42C4F80011E65484F804613FF4D3
:1019C800F8AAFF2915F8016BF1D1D4F8083184F889
:1019D800FF902046D4F80C219847D4F820310121F3
:1019E8000B44C4F820310023E3E700BFFCEA0208F7
:1019F80000EB02081BEB0208F0E90208ECE9020818
:101A0800D8E90208C4E90208B4E9020890E9020822
:101A1800ACE9020884E9020878E9020820C1020852
:101A2800291DFEF79BFE00283FF4CBAA03782F2B35
:101A380000F0EC85D4F8105102462B683146C4F802
:101A480010312046FFF718FAC4F81051FFF7B1BA61
:101A58000023D0F81491D0F83C81C0F81431C0F8B4
:101A68003C514A076F6805D53B781BB9BA68062A06
:101A780000F0CA873A4620463146FFF7FDF994F848
:101A880004313C2B00F0728720463C21FEF748FDCC
:101A980020463146AA68FFF7EFF994F804313E2B47
:101AA80000F05E8720463E21FEF73AFDC4F8149107
:101AB800C4F83C81FFF77DBA6A68FFF7DDF9710762
:101AC800204600F11B84CE49FEF7ECFEAD682B786A
:101AD800452B00F01586204631462A46FFF7CCF9FB
:101AE800FFF767BA11F0040640F0A685AB686D6889
:101AF800002B3FF45EAAD0F8001105EB030809E0BB
:101B08000B4601314545C4F80011E75484F80471C7
:101B18003FF44FAAFF2915F8017BF1D1D4F8083119
:101B280084F8FF602046D4F80C219847D4F8203177
:101B380001210B44C4F820310023E3E70022D0F848
:101B48001431C0F814216F680093002F00F0E5816C
:101B58000DF1100A904696465346D0F810C13978D0
:101B680008F10108A1F11C0004281A60C4F8143116
:101B78005F60C3F808E0C3F80CC01A4603F110030D
:101B880040F2C581042900F0A981022940F0AC8106
:101B9800D7F808B09BF80030452B08BFDBF804B035
:101BA8009BF800301C3B042B00F29E81B8F1040F17
:101BB80000F0B3812B4608F1805E0EF1FF3E0AEB80
:101BC8000E1EB1465D4666469B46A446744603E033
:101BD800B8F1040F01F0088094E80F0004F1100E2A
:101BE8008EE80F00234600221C615D609A60DE606B
:101BF800CCF814E16D6874462B7808F101081C3B99
:101C0800042BE5D9DBF80820604649466446FFF70F
:101C180033F93B784E46042B00F06F81B8F1000F82
:101C28000CD045460AEB081A5AF8083C013D002B2F
:101C380000F0A286AAF1100A002DF5D1009BC4F885
:101C48001431FFF7B6B9AF686D68002F3FF4B1A93A
:101C5800D0F800112F444FF0000809E00B4601317D
:101C6800BD42C4F80011E65484F804613FF4A1A908
:101C7800FF2915F8016BF1D1D4F8083184F8FF80F9
:101C88002046D4F80C219847D4F8203101210B4480
:101C9800C4F820310023E3E75A4FD0F8001107F1C8
:101CA800110A4FF000090AE00B4601315745C4F804
:101CB800001104F8038084F8048100F07881FF297A
:101CC80017F8018FF0D1D4F8083184F8FF90204636
:101CD800D4F80C219847D4F8203101210B44C4F8DA
:101CE80020310023E2E74849FEF7DCFD2046314673
:101CF8006A68FFF7C1F8FFF75CB94449FEF7D2FDFF
:101D0800204631466A68FFF7B7F8FFF752B94049ED
:101D1800FEF7C8FD204631466A68FFF7ADF8FFF7C1
:101D280048B93C49FEF7BEFD204631466A68FFF7D0
:101D3800A3F8FFF73EB911F0040640F0E4826A68A0
:101D480053681568002B3FF434A9D0F8001105EB4F
:101D5800030809E00B4601314545C4F80011E75472
:101D680084F804713FF425A9FF2915F8017BF1D106
:101D7800D4F8083184F8FF602046D4F80C2198473D
:101D8800D4F8203101210B44C4F820310023E3E7C3
:101D980068680378052B00F051834FF00008232B67
:101DA80000F0FD822A789A4200F0F982242B00F094
:101DB8008185D4F8140114ABD4F8101143F8400D00
:101DC80000220595C4F81431079106926A682046E6
:101DD8003146FFF751F8069B002B00F01F82049B49
:101DE800C4F81431B8F1000F3FF4E3A8C4F8107137
:101DF800FFF7DFB8D0F814014FF00008DBE700BFA9
:101E080054E902088FEA020844EA020830EA0208A4
:101E180020EA020804EA0208D0F814C1BCF1000F55
:101E280000F0DC866246916851B950680078A0F1EC
:101E3800190EBEF1020F00F2DE83834200F0DF8349
:101E48001268002AEFD160469046B4E7D54FD0F823
:101E5800001107F1150A4FF0000909E00B4601319E
:101E68005745C4F8001104F8038084F804816CD045
:101E7800FF2917F8018FF1D1D4F8083184F8FF90C1
:101E88002046D4F80C219847D4F8203101210B447E
:101E9800C4F820310023E3E7C349FEF703FD2046D9
:101EA80031466A68FEF7E8FFFFF783B80123C0F8F8
:101EB8001831FFF77EB88A68012A7FF401AC4A68B6
:101EC80012783E2A7FF4FCAB20462821FEF728FB37
:101ED8006B68AF685B681868FFF7F3BB14AB43F82F
:101EE80048CD0397C4F81031AA6820463146FEF75A
:101EF800C3FF3B78042B7FF494AE029BC4F81031E7
:101F08008CE6013747457FF4D4A8FFF752B87F68BD
:101F18001FB1B8F1040F7FF422AE0123C4F81831C1
:101F2800FFF747B83146AA682046FEF7A5FFD4F860
:101F38000011FF2900F0D3834A1C5D23C4F8002157
:101F4800635484F80431FFF734B8984F314620467B
:101F5800AA68FEF791FF07F1050AD4F800114FF0BF
:101F6800000909E00B4601315745C4F8001104F88F
:101F7800038084F8048113D0FF2917F8018BF1D16D
:101F8800D4F8083184F8FF902046D4F80C219847FB
:101F9800D4F8203101210B44C4F820310023E3E7B1
:101FA800204631466A68FEF767FFFFF702B8204609
:101FB80031466A68FEF760FFFEF7FBBF31466A6884
:101FC8002046FEF759FFD4F80011FF2900F0CA8314
:101FD8004A1C2923C4F80021635484F80431FEF70D
:101FE800E8BF204631466A68FEF746FFFEF7E1BFC4
:101FF80031462046AA68FEF73FFF20465D21FEF7DE
:102008008FFAFEF7D6BF204631466A68FEF734FFDE
:10201800FEF7CFBF204631462A1D01F0F1F8FEF742
:10202800C8BF20463146AA68FEF726FFFEF7C1BFA3
:10203800D8F804502B78613B192B40F2C781EB1973
:1020480013F8013C202B08BF07F1FF37002F3EF49F
:10205800B0AFD4F800112F444FF0000809E00B4648
:102068000131BD42C4F80011E65484F804613EF41D
:10207800A0AFFF2915F8016BF1D1D4F8083184F825
:10208800FF802046D4F80C219847D4F8203101214C
:102098000B44C4F820310023E3E7204631466A6840
:1020A800FEF7EAFEFEF785BF204631466A68FEF76E
:1020B800E3FEFEF77EBF6A6804A801323C4923F0BC
:1020C800DBF904A823F038FF18B304ADD4F80011E5
:1020D8002F184FF0000808E00B460131BD42C4F844
:1020E8000011E65484F8046115D0FF2915F8016B36
:1020F800F2D1D4F8083184F8FF802046D4F80C21B6
:102108009847D4F8203101210B44C4F8203100232A
:10211800E4E7D4F80011FF2900F013834A1C7D235B
:10212800C4F80021635484F80431FEF742BF3146F5
:10213800204E20466A68FEF79FFE06F10209D4F891
:1021480000114FF0000808E00B4601314E45C4F875
:102158000011E75484F8047113D0FF2916F8017BA5
:10216800F2D1D4F8083184F8FF802046D4F80C2145
:102178009847D4F8203101210B44C4F820310023BA
:10218800E4E7AA6804A80132094923F075F904A80C
:1021980023F0D2FE68B304ADD4F800112F184FF025
:1021A800000812E077EA02085CEA020870EA02080E
:1021B800ECBC020890EB02080B460131BD42C4F8A2
:1021C8000011E65484F8046115D0FF2915F8016B55
:1021D800F2D1D4F8083184F8FF802046D4F80C21D5
:1021E8009847D4F8203101210B44C4F8203100234A
:1021F800E4E7D4F80011FF2900F0C5824A1C7D23CA
:10220800C4F80021635484F80431FEF7D2BE204696
:1022180031466A68FEF730FEFEF7CBBE31462A46E5
:102228002046FEF7B3FBDAE56B680093B8F1000FC0
:102238007EF438AFFEF7BDBE0027FEF791BEDE4D37
:10224800D0F80011AF1D4FF0000808E00B4601312F
:10225800BD42C4F80011E65484F8046113D0FF2984
:1022680015F8016BF2D1D4F8083184F8FF802046C4
:10227800D4F80C219847D4F8203101210B44C4F834
:1022880020310023E4E74A4604A8CC4923F0F4F8B7
:1022980004A823F051FE18B304ADD4F800112F1888
:1022A8004FF0000808E00B460131BD42C4F80011A8
:1022B800E65484F8046115D0FF2915F8016BF2D1B2
:1022C800D4F8083184F8FF802046D4F80C219847C8
:1022D800D4F8203101210B44C4F820310023E4E76D
:1022E800D4F80011FF2900F0A1834A1C7D23C4F80B
:1022F8000021635484F80431FEF75BBE2E21FEF7FB
:102308000FF9FFF7E3BB6B68DF689D68002F3EF4A9
:1023180050AED0F800112F444FF0000809E00B46EA
:102328000131BD42C4F80011E65484F804613EF45A
:1023380040AEFF2915F8016BF1D1D4F8083184F8C3
:10234800FF802046D4F80C219847D4F82031012189
:102358000B44C4F820310023E3E7994D9846AF1D9C
:1023680009E00B460131BD42C4F80011E65484F877
:1023780004613EF41EAEFF2915F8016BF1D1D4F8C3
:10238800083184F8FF802046D4F80C219847D4F807
:10239800203101210B44C4F820310023E3E705462E
:1023A800D4F8140107E521F0600605F1080231466A
:1023B800D4F8143100F072FC6A68002A3EF4F9ADD2
:1023C80020463146FEF758FDFEF7F3BDFF2900F021
:1023D800BF8320234A1CC4F80021635484F80431C5
:1023E800D8F804502BE6D4F80011FFF7CDB8754F94
:1023F800D0F8001107F1050A4FF000090AE00B4672
:1024080001315745C4F8001104F8038084F80481A9
:102418003FF4A4A8FF2917F8018BF0D1D4F80831AC
:1024280084F8FF902046D4F80C219847D4F820313E
:1024380001210B44C4F820310023E2E7D4F8281125
:10244800D4F824C1002915DDDCF80030984200F0EA
:1024580049820CF108020023BE4607E05CF833709D
:102468009046B84202F1080200F03D8201338B42E7
:10247800F4D17746D4F82C31994280F2BA83D4F853
:1024880010814B1C0CEBC109C4F8283109F104096F
:102498004CF83100B8F1000F20D0D4F83431D4F81A
:1024A80038118B4280F2A5834FEAC30E8C4602E0B6
:1024B800634500F09C83D4F83021D8F804107244A6
:1024C8005160C9F80020D8F800800EF1080E0133D9
:1024D8009146B8F1000FEBD1C4F834314FF0000841
:1024E800011DC9F800802046FEF738F9002840F0A1
:1024F8000982FEF766BD7B683349D3F80080404601
:1025080008F074FA2B7810B9032B00F03183372BBD
:1025180000F07483204631463A4600F021FF4046D9
:102528002A4908F063FA002800F0898140462849C2
:1025380008F05CFA074600287EF461AFD4F8003151
:10254800FF2B00F03083581C2827C4F800013146BF
:10255800E7542A46204684F80471FEF78DFCD4F827
:102568000011FF2900F00F8329234A1CC4F8002119
:10257800635484F80431FEF71CBDD0F80011FF291C
:1025880000F0D682481C2823C4F800013A1D635481
:102598002046314684F8043100F032FED4F80011A8
:1025A800FF2900F0B58229234A1CC4F8002163548E
:1025B80084F80431FEF723BF3CEB0208ECBC0208A8
:1025C800D0EA0208C0EA0208F4EA0208F8EA0208B7
:1025D800A4ED02080027D4F8083167542046D4F83F
:1025E8000C219847D4F82031C4F800710133C4F89D
:1025F8002031FEF793BF60468846FFF7DCBB2046D4
:1026080031466A68FEF738FCFEF7D3BCD4F81C31B3
:1026180008E08068013B00283EF4D3AC02782F2AFA
:102628007EF4CFAC002BF4DC7EF4CBAC4068002801
:102638007FF400AAFEF7C5BC6E68AB6806EB03081A
:102648004645BEF4B6AC00270DE0D4F80011FF29CA
:1026580035D04B1CC4F80031655484F80451013658
:10266800B0457EF6A6ACC6EB0803032B3578ECDD47
:102678005F2DEAD172785F2AE7D1B378552B01D064
:102688001546E2E7F31C9845FAD9002205E00D4605
:10269800434505EB021200F0A582994613F8015B49
:1026A800A5F13001C8B20928A5F1410EEFD9BEF154
:1026B800050FA5F1610100F21081373DE8E7D4F874
:1026C8000831D4F80C2184F8FF7020469847D4F8D4
:1026D800202101231A44C4F820210021BAE700254B
:1026E800D4F80831D4F80C2184F8FF5020469847D4
:1026F800D4F82031012213442946C4F820311CE4BF
:102708002046D449FEF7CEF8A96820460131FEF7E5
:10271800FFF82046D049FEF7C5F86D68FFF7DBB92A
:102728000026D0F80831D4F80C2180F8FF609847CB
:10273800D4F8202101231A443146C4F82021FEF799
:1027480043BE0025D4F80831D4F80C2184F8FF5092
:1027580020469847D4F82031012213442946C4F86A
:102768002031DCE40025D4F80831D4F80C2184F8B1
:10277800FF5020469847D4F82031012213442946B7
:10278800C4F8203125E40025D4F80831D4F80C2108
:1027980084F8FF5020469847D4F82031012213448A
:1027A8002946C4F820312AE50123C4F81831FEF778
:1027B80000BCD4F8141114AA42F8401DC4F814211E
:1027C800D4F8107126F060066A68314620460693F0
:1027D80005950797FEF750FB049A069BC4F8142149
:1027E800002B7EF4E6AB20462021FDF799FEFFF78B
:1027F8005CB84FF00008D4F80831D4F80C2184F8FC
:10280800FF8020469847D4F82031012213444146DE
:10281800C4F82031FEF7BBBB4FF00008D4F80831EC
:10282800D4F80C2184F8FF8020469847D4F820314A
:10283800012213444146C4F82031FEF797BB2046D5
:1028480031462A46FEF718FBFEF7B3BBAA68127892
:10285800002A7EF485AB3C2B00F00F823146AA6833
:102868002046023FFEF708FB042F3EF6A2ABDFE846
:1028780007F01B150F09030020467849FEF712F8E8
:10288800FEF797BB20467649FEF70CF8FEF791BB9A
:1028980020467449FEF706F8FEF78BBB20466C21EC
:1028A800FDF73EFEFEF785BB20467521FDF738FE95
:1028B800FEF77FBBD4F81411426814ABD4F81001AA
:1028C80043F8401D00210595C4F81431079006917E
:1028D800002A7FF47CAAFFF779BA052900F2A981BA
:1028E800573DD5E6E046D8F80430011DD4F81071FC
:1028F8002046C4F81031FDF731FF00283EF45FABE5
:102908004FF0010803782F2B7FF449AAD4F81C3123
:1029180008E08068013B00283EF44EAB02782F2A7D
:102928007EF44AAB002BF4DC7EF446AB406800280A
:102938003EF442AB0378FFF732BA00261946D4F8C2
:102948000C21D4F8083184F8FF6020469847D4F861
:10295800202101210A443346C4F82021FEF70EBE87
:1029680020462021FDF7DCFDFFF79CB820462021FA
:10297800FDF7D6FDFFF788B820462021FDF7D0FDEA
:10298800204631465AF80C2CFEF700F8FFF752B9EA
:102998005B21FDF7C5FD20463146AA68FEF76CFAB3
:1029A80020465D21FDF7BCFDFEF703BB20462D2127
:1029B800FDF7B6FDFEF7F5BA0778A7F1630EBEF18D
:1029C800010F03D9723F012F3EF676AE20463146FD
:1029D80000F0C6FC20463C21FDF7A2FDAB6820466E
:1029E8005A683146FEF748FA20461F49FDF75AFF54
:1029F800AB68314620469A68FEF73EFA2046292100
:102A0800FDF78EFDFEF7D5BA7868184923F09CFAD1
:102A180000287FF42FA831462046AA68FEF72CFA32
:102A280020461349FDF73EFFFFF740B80025D4F8CC
:102A38000831D4F80C2184F8FF5020469847D4F880
:102A48002031012213442946C4F820314EE4009B6A
:102A5800FEF719BF58E9020868E9020818EB0208EE
:102A680014EB020810EB0208B0EB02086CE902084C
:102A780074E9020820465B21FDF752FDAB68314638
:102A880020469A68FEF7F8F920465D21FDF748FDD3
:102A9800FEF73CBE3A462046314600F061FCFEF7A0
:102AA8002FBEAA6820463146FEF7E6F9009A069B33
:102AB800C4F81421002B7EF47CAA1346FEF7E3BE6B
:102AC80042462046314600F089FC204631465246AF
:102AD80000F046FC4A462046314600F07FFC20467E
:102AE8006A49FDF7DFFE204631462A4600F076FCAB
:102AF800FEF75FBA936820461B783146292B1CBF26
:102B08000123C4F81831526800F068FCFEF7E6BDEE
:102B18000027D4F8083184F8FF702046D4F80C2137
:102B28009847D4F8203139460133C4F820313AE5C2
:102B38004FF00008D0F8083180F8FF80D4F80C2155
:102B48009847D4F8203141460133C4F8203119E5BB
:102B58000025D4F8083184F8FF502046D4F80C2119
:102B68009847D4F8203129460133C4F8203130E49D
:102B78006B681A78012A7FF4CDACAA681278292AE2
:102B880008BF1D46C6E40025D4F8083184F8FF5074
:102B98002046D4F80C219847D4F82031294601332F
:102BA800C4F82031E0E484F8FF001946D4F80C2179
:102BB800D4F8083120469847D4F820213B46013202
:102BC800C4F82021BFE4314620466A6800F006FCBC
:102BD80020462F49FDF766FEFEF7EBB96046E04652
:102BE800FFF7E9B85F2530E56446FFF796B9C4F802
:102BF80034310123C4F81831FEF7DBB96A6820467E
:102C0800314600F0EBFB204631463A4600F0A8FB7F
:102C1800FEF7CFB93B2B7EF4A3A953681B78302B62
:102C28002FD0312B7EF49CA91A49FDF73BFEFEF705
:102C3800C0B9C845D6D95F2DD4D1FF2A3FF605AD16
:102C4800D4F80011D5B2FF290FD1D4F8083184F88F
:102C5800FF702046D4F80C219847D4F82031C4F8E6
:102C680000710133C4F8203100214B1CC4F8003135
:102C78004E46655484F80451F1E42D21FDF750FCCB
:102C8800ECE50549FDF70EFEFEF793B994BE020880
:102C980038EB0208A8BC0208B0BC02082DE9F843CA
:102CA80004460D4616461F46002B3ED09B68002B57
:102CB8003BD13A464FF0010E06E010F4606F65D143
:102CC800126892B3936883BB53686D491B78193BAC
:102CD800DBB20EFA03F0122B01EA0001F0D800294A
:102CE800EBD094F80431202B56D0D4F80031FF2BC8
:102CF80000F0B280591C2022FF29C4F80011E254C8
:102D080084F804214CD14FF00008D4F80831D4F8E5
:102D18000C2184F8FF8020469847D4F8202101230D
:102D28001A444146C4F820213BE00022D4F814811B
:102D38001346C4F81421294620463A4600F0A2F862
:102D4800D4F80011FF294BD028224B1CC4F80031BD
:102D5800625484F8042132682AB120462946FEF7D5
:102D68008BF8D4F80031FF2B53D05A1C2926C4F80D
:102D780000212946E6543A46204684F80461012396
:102D880000F080F8C4F81481BDE8F88394F80431A1
:102D980003F0FD02282AA6D1D4F80011FF29B2D0E9
:102DA8004B1C28224FF00009C4F80031D4F81481D4
:102DB8004B466254204684F80421C4F814912946ED
:102DC8003A4600F05FF8D4F80031FF2B33D0591C95
:102DD8002922FF29C4F80011E25484F80421B3D150
:102DE800002384F8FF30D4F80C21D4F808312046A9
:102DF80098472823237084F80431D4F820313268A6
:102E0800591C0123C4F82011C4F80031002AA4D1A8
:102E1800ABE700261946D4F80C21D4F8083184F819
:102E2800FF6020469847D4F8201101221144334608
:102E3800C4F820119AE71946D4F80C21D4F80831BF
:102E480084F8FF9020469847D4F8202101210A44AD
:102E58004B46C4F82021BBE74FF000081946D4F8C8
:102E68000C21D4F8083184F8FF8020469847D4F81C
:102E7800202101210A444346C4F820213BE700BF32
:102E8800073104002DE9F84F144662B31E46D0F806
:102E980018310546002B40F0A0800F464FF001087E
:102EA80002E0D5F8183103BBA368CBB96268137880
:102EB8001EB9A3F11C01042912D9E168292BC4F811
:102EC8000880D5F81091C5F8101110D02A2B18D009
:102ED800022B20D028463946FDF758FDC5F8109139
:102EE8002468002CDDD1BDE8F88FBDE8F88F39469D
:102EF800083223682846FFF7D1FEC5F81091BDE8CF
:102F0800F88F394604322368284600F09FF8C5F840
:102F18001091BDE8F88F0026D5F81481C5F8146122
:102F2800526828463946FDF7A7FFC5F8148117F0FF
:102F3800040823D1424ED5F8001106F1020B09E02E
:102F48000B4601315E45C5F8001105F803A085F868
:102F580004A11ED0FF2916F801ABF1D1D5F808312C
:102F680085F8FF802846D5F80C219847D5F82031F8
:102F780001210B44C5F820310023E3E7D5F80011FF
:102F8800FF291AD04A1C2E23C5F800216B5485F856
:102F9800043163689C682378452B02D11FE064687C
:102FA80023781C3B042BFAD9394622462846FDF7DC
:102FB80063FFC5F81091BDE8F88FD5F80831D5F84A
:102FC8000C2185F8FF6028469847D5F82031012262
:102FD80013443146C5F82031D5E7BDE8F88F194EBE
:102FE800D5F8001106F10D0A4FF0000B09E00B4669
:102FF80001315645C5F8001105F8038085F80481AC
:1030080013D0FF2916F8018BF1D1D5F8083185F8CE
:10301800FFB02846D5F80C219847D5F82031012172
:103028000B44C5F820310023E3E7A16828460131A5
:10303800FDF76EFC28460449FDF734FCAFE700BFF6
:1030480054E9020858E9020868E902082DE9F84F2E
:1030580004460E46174699464BB1986878B31B68E4
:10306800002BFAD14A4620463146FFF70BFFD4F829
:103078000031FF2B69D0591C2022C4F80011E254FA
:1030880084F80421FF2900F095805B224B1CC4F8CA
:103098000031625484F804213A682AB13146204646
:1030A800FDF7EAFED4F80031FF2B71D0591C5D22E0
:1030B800C4F80011E25484F80421BDE8F88F5B6875
:1030C8001B782A2B00F09080DFF830810546D4F871
:1030D800001108F1020B0AE00B46D84501F1010185
:1030E800C4F8001104F803A084F804A11BD0FF2938
:1030F80018F801ABF0D1D4F8083184F8FF50204615
:10310800D4F80C219847D4F8203101210B44C4F895
:103118002031D8454FF00003C4F8001104F803A08B
:1031280084F804A1E3D131464A4620460023FFF73C
:10313800A9FED4F80011FF2919D04B1C2922C4F884
:103148000031625484F8042193E700251946D4F825
:103158000C21D4F8083184F8FF5020469847D4F859
:10316800202101210A442B46C4F8202184E70025A8
:10317800D4F80831D4F80C2184F8FF502046984739
:10318800D4F8202101231A442946C4F82021D5E780
:1031980000251946D4F80C21D4F8083184F8FF50DA
:1031A80020469847D4F8202101210A442B46C4F828
:1031B80020217CE7002384F8FF30D4F80C21D4F8D0
:1031C8000831204698475B23237084F80431D4F8EB
:1031D80020313A68591C0123C4F82011C4F8003181
:1031E800002A7FF45BAF61E7034631464A46204632
:1031F800FFF748FED4F8001144E700BF34EB02089B
:10320800F0B50446D0F83C0183B00E46154638B1F7
:10321800D4F8102102AB43F8082D0190C4F81031FE
:103228002A681378042B0BD031462046FDF724FE7C
:10323800D4F83C3113B1009BC4F8103103B0F0BD91
:10324800526820463146FDF717FED4F83C3113B1D9
:10325800009BC4F8103194F804313C2B43D0D4F8C7
:103268000011FF291DD04A1C3C23C4F800216354D7
:1032780084F804312B6831469A682046FDF7FCFD36
:1032880094F804313E2B3AD0D4F80011FF2919D014
:103298004A1C3E23C4F80021635484F8043103B067
:1032A800F0BD0027D4F80831D4F80C2184F8FF7059
:1032B80020469847D4F82031012213443946C4F8EF
:1032C8002031D1E70025D4F80831D4F80C2184F84E
:1032D800FF5020469847D4F820310122134429464C
:1032E800C4F82031D5E7D4F80031FF2B13D0591C8E
:1032F8002022C4F80011E25484F80421B1E7D4F87C
:103308000031FF2B19D0591C2022C4F80011E254B7
:1033180084F80421BAE700271946D4F80C21D4F818
:10332800083184F8FF7020469847D4F820210121FD
:103338000A443B46C4F82021DAE700251946D4F8A8
:103348000C21D4F8083184F8FF5020469847D4F867
:10335800202101210A442B46C4F82021D4E700BFCC
:103368002DE9F0411578312D03D0BDE8F041FDF786
:1033780083BD53689F685D686FB30446D0F8001139
:103388002F444FF0000809E00B46BD4201F101014E
:10339800C4F80011E65484F804611AD0FF2915F81E
:1033A800016BF1D1D4F8083184F8FF802046D4F8B5
:1033B8000C219847D4F8203101210B44C4F820315E
:1033C800BD424FF00003C4F80011E65484F80461CC
:1033D800E4D1BDE8F081BDE8F08100BFF8B513780D
:1033E8000446012B21D9302B1FD0062B1DD0D0F835
:1033F80000310E46FF2B15462DD05A1C2827C4F83D
:1034080000213146E7542A46204684F80471FDF726
:1034180033FDD4F80011FF290CD04A1C2923C4F825
:103428000021635484F80431F8BD2046BDE8F84013
:10343800FDF722BD0025D4F80831D4F80C2184F812
:10344800FF5020469847D4F82031012213442946DA
:10345800C4F82031E2E700271946D4F80C21D4F843
:10346800083184F8FF709847D4F8201101221144DC
:103478003B46C4F82011C1E770B5C36804461A7802
:103488004C2A01D0002070BD5A1CC26059785F29AF
:1034980037D05A290CD10132E2602046002103F0CE
:1034A8002DF9E2681378452BECD10132E26070BD4A
:1034B80000F042F805460028E4D00378272B30D0E6
:1034C800E1680B786E2B26D03B26452B32D0002B9B
:1034D800D8D00A4601E0002BD4D00132E26013783C
:1034E800452BF8D1521A2046FCF796FE2A46034689
:1034F80031462046FCF744FEE2681378452BC1D1DB
:10350800D3E79A1CC2609B785A2BC4D0452B4FF046
:103518000000B7D1C9E74A1CE2604B783C26114647
:10352800D3E743681A7C002ACAD05A68236B9B1ACF
:103538002363C5E70022D6E72DE9F04F0446C068AB
:1035480083B00378722B55D0562B53D04B2B51D0C8
:10355800A3F130024A2A00F2C380DFE812F0EB0040
:10356800EB00EB00EB00EB00EB00EB00EB00EB00FB
:10357800EB00C100C100C100C100C100C100C10011
:10358800F100C1000F013101C1001D012301C1007B
:10359800C100C100C100C100A101EB00B901C70110
:1035A800C100D501E3013B020402C100C100C10012
:1035B800C100EB00C100C100C100C100C100C100D1
:1035C8001602160216021602160216021602160233
:1035D80016021602C1001602160216021602C100D1
:1035E800C100C10016021602D10016021602160208
:1035F80016021602204601A90022FCF727FE0546FE
:1036080000286DD0E36820461B78462B6DD0FFF765
:1036180093FF2860002863D003781F3B012B68D9EB
:10362800019A002A5CD0236A616A8B4258DAE06901
:10363800591C40F82320019D2162284603B0BDE8AB
:10364800F08F0125676B656383784C2B00F0A584A8
:10365800542B00F09D84732B00F0B583662B00F08B
:103668009283A3F13002092A40F21D836F2B00F0E8
:103678001483692B00F0BA83742B00F0D984204698
:1036880001F048F90546002800F062840378312BE0
:1036980000F0BF83322B00F0BC84332B40F05884F9
:1036A800E3681A785F2A01F09C80204604F074FFD2
:1036B80003462A4620463521FCF762FD0246676329
:1036C800204641210023FCF75BFD0546019038B1F7
:1036D800E3681A7822B15A1CE2601B78452B1ED089
:1036E8000025284603B0BDE8F08F01F0F3F8286004
:1036F80090E7019A436842602A6801922B608FE73D
:103708000130E0602046FCF7BDFF28210246002377
:103718002046FCF735FD05460190002DE0D0236AD0
:10372800626A9342DCDAE1695A1C41F82350019D30
:10373800226282E7204602F061FE05460190ECE72E
:10374800411CE16043785F2B00F05582303B092B28
:1037580000F25F820A460132E2601378303B092B9F
:10376800F9D9521A2046FCF757FD054620B1E16801
:103778000B785F2B00F040820025A7E00130E06065
:103788002046FFF7D9FE2521024600232046FCF7F4
:10379800F7FC05460190C0E7204601F09BF8054676
:1037A8000190BAE70130E0602046FFF7C5FE262108
:1037B800024600232046FCF7E3FC05460190ACE7EF
:1037C800431CE3604378002B8AD0831CE360437872
:1037D800463B302B84D801A252F823F0893B0008DD
:1037E800E9360008E9360008E9360008E936000835
:1037F800E9360008E9360008E9360008E936000825
:10380800E9360008E9360008E9360008E936000814
:10381800E93600084B360008E9360008E9360008A2
:10382800E9360008E9360008E9360008E9360008F4
:10383800E9360008E9360008E9360008E9360008E4
:10384800E9360008E93600087B3B0008E93600083D
:10385800E93600085F3B00089D3A0008713A000805
:10386800E9360008453A0008193A0008E936000820
:10387800E9360008E9360008E9360008373B000851
:10388800E93600081F3B0008E9360008E936000859
:10389800033B00084B360008E9360008C93A00081F
:1038A8000130E0602046FFF747FE054600283FF458
:1038B80063AF2046FFF740FE00283FF45DAF2A467D
:1038C80003462B212046FCF75BFC0546019524E7BF
:1038D8000130E0602046FFF72FFE24210246002336
:1038E8002046FCF74DFC0546019016E70130E060E4
:1038F8002046FFF721FE2221024600232046FCF73E
:103908003FFC0546019008E70130E0602046FFF7DC
:1039180013FE2321024600232046FCF731FC05460E
:103928000190FAE64378A3F13002092A05D95F2B02
:1039380003D0413B192B00F2788120460021FCF787
:10394800F9FCE36801901B780546492B7FF475AEB6
:10395800204601F0A1F92A46034604212046FCF737
:103968000FFC0546B2E70130E0602046FCF78AFE0E
:1039780001902046FFF7E0FD21210246019B2046E9
:10398800FCF7FEFB05460190C7E6613BAD4F626957
:10399800A56903EB83039B0007F1C401AA421944FC
:1039A80080F2258102EB4206D4F810E0B60001321D
:1039B8001EEB0605626100F01A8127220EF8062028
:1039C8003B446960226BD3F8C83001301344E0608F
:1039D800236332E62046FCF723FEE668019033783D
:1039E8000546492B7FF499AEA36B002B40F03C8130
:1039F80000283FF475AE236A626A9342BFF670AE40
:103A0800E1695A1C41F82300019D20462262A0E783
:103A18006369A269934280F2EA8003EB4302216959
:103A2800920001338D18636100F0E180864B2720F6
:103A380088546B60236B08332363FEE56369A269CE
:103A4800934280F2D48003EB430221699200013350
:103A58008D18636100F0CB807C4B272088546B6005
:103A6800236B04332363E8E56369A269934280F218
:103A7800BE8003EB43022169920001338D18636114
:103A880000F0B580724B272088546B60236B093394
:103A98002363D2E56369A269934280F2A88003EBAD
:103AA80043022169920001338D18636100F09F8001
:103AB800684B272088546B60236B0A332363BCE56B
:103AC80083785F2B00F005812046FCF775FD0546DD
:103AD800002D3FF4FBAEE3681A785F2A7FF44CAE02
:103AE8000133E3602046FFF727FD2A4603462D21D0
:103AF8002046FCF745FB0546E8E66369A269934260
:103B080075DA03EB43022169920001338D18636172
:103B18006DD0514B8BE72046FFF70EFD4921024639
:103B280000232046FCF72CFB05460190F5E5636968
:103B3800A26993425BDA03EB4302216992000133E5
:103B48008D18636153D0454B272088546B60236BD5
:103B58001133236371E56369A269934247DA03EB82
:103B680043022169920001338D1863613FD03C4BB9
:103B780089E720463B490422FCF74EFB05465CE5F5
:103B88006369A269934280F28580256903EB430249
:103B980092000133A9182C2663610191AE548378F1
:103BA800303B092B8CBF002301230B811BB104F18F
:103BB8000C00FCF7D9FC2046019DFFF7BDFC019BDA
:103BC80068605B68002B3FF48BAD04F10C00FCF7D8
:103BD800CBFCE26813783BB1531CE3601378A3F184
:103BE8007303B3FA83F35B09019D6B8125E5002319
:103BF80001935B68FFDE00250131E1602046FFF795
:103C08009BFC2A4603462A212046FCF7B9FA0546BA
:103C18005CE60123656B2046636304F0BDFC6563C5
:103C2800054600287FF4A3ADA6E5204602F0E6FB92
:103C38000546019000283FF453AD0378182B7FF414
:103C48006EADFAE4A8E10208D8E40208B0E402087C
:103C580074E402089CE40208C4E40208ECE40208E4
:103C680088E40208BCEB02082046D4F81490D4F883
:103C78002080A76A256B01F00FF8E2681278492ABC
:103C88006AD02563E660C4F81490C4F82080A7625F
:103C9800019D42E500231B70FFDEC3786E2B7FF485
:103CA800EEAC0430E060204600F0B6FE0546002881
:103CB80000F04E81E3681B78492B7FF4FFAC204667
:103CC80000F0EAFF2A46034604212046FCF758FA8A
:103CD800F4E4C31C0125E360676B6563C3784C2B70
:103CE80000F0E481542B00F0DC81732B00F0C681D6
:103CF800662B00F0A681A3F13002092A40F2318137
:103D08006F2B00F02881692B40F0118503796C2B0B
:103D180000F0FC84204600F0FDFD0646002800F077
:103D280005820378312B00F0E481322B00F01983EF
:103D3800332B40F0FB81E3681A785F2A00F0D281C8
:103D4800204604F029FC0346324620463521FCF77C
:103D580017FA05466763BBE6019B002B3FF4C0AC2E
:103D6800226A616A8A42BFF6BBACE569511C45F814
:103D78002230019A0346216220460421FCF700FA0A
:103D880005460190C9E4C378702B7FF478AC031D15
:103D9800E3600379542B40F0D5800530E0600025BE
:103DA8006269A3699A4280F2D3800C2303FB02F371
:103DB800216901326261CA1800F0C5840620C8541E
:103DC800104655607AE4C378722B00F00B81702B93
:103DD8007FF455AC0430E060204604F0DDFB492157
:103DE800024600232046FCF7CBF967E4C3786C2B26
:103DF8007FF445AC0025E36820460233E3604521A3
:103E080003F00AF92A46034630212046FCF7B8F9A0
:103E180054E44268216B93681668023B0B442363A1
:103E28003046C34906F0E2FD002800F0D1846B68F3
:103E3800DB68032B00F28C80DFE803F07CB43F03DF
:103E480000263046BB4906F0D1FD002800F09784D3
:103E580033786E2B7CD17378772B01D0612B77D197
:103E68005F21204603F0D8F806462046FFF764FB9A
:103E7800E36880461A78452A00F07C84702A00F0AE
:103E88006D84692A64D15B786C2B61D1204604F07B
:103E980083FB424603463A212046FCF771F9324635
:103EA800034639212046FCF76BF92A460346382198
:103EB8002046FCF765F901E400266B681B685A7810
:103EC800632A00F07684204604F066FB804630467C
:103ED800994906F08BFD002800F064843046974924
:103EE80006F084FD30B13046954906F07FFD002884
:103EF80040F05284204600F08FFDE36806461B78A8
:103F0800492B09D1204600F0C7FE3246034604215A
:103F18002046FCF735F90646424633462046372107
:103F2800FCF72EF92A46034636212046FCF728F9E5
:103F3800FFF7C4BB2A46204634210023FCF720F9AA
:103F4800FFF7BCBB2046FCF753FB451C7FF428AFAA
:103F58000020FFF7B3BB03796E2B7FF4DBAE05308F
:103F6800E060204600F058FD0546002800F0DE809D
:103F7800E3681B78492B7FF4EDAE204600F08CFEF9
:103F88002A46034604212046FCF7FAF80546E1E6EE
:103F98002046FCF745FBFFF791BB2046FFF76CFA7C
:103FA800FFF78CBB3378702B02D06D2B7FF47DAB81
:103FB80072789A427FF479ABE3681A785F2A00F046
:103FC8000C84204604F0E8FA0246372120461346BE
:103FD800FCF7D6F803462A4620463521FCF7D0F8E8
:103FE800FFF76CBB0430E0602046FFF7A5FA0646F1
:103FF800204600F011FDE36880461B78492B00F04D
:10400800F8830346294632462046FCF7B9F8FFF7FD
:1040180055BB6B68032B9BD801A252F823F000BF55
:104028003D3F0008B3360008C13E0008493E00087D
:10403800C3786C2B7FF423AB2046FFF77DFA054647
:10404800D9E60379702B7FF465AE431DE3604379AD
:10405800542B66D10630E06000206269A3699A4259
:1040680064DA0C2303FB02F321690132CD18626183
:104078003FF470AE0622CA5468606BE60379722B6F
:1040880019D0702B7FF446AE0530E060204604F06E
:1040980083FA4921024600232046FCF771F80546B9
:1040A80058E62046FCF7BCFA054653E62046FFF7DB
:1040B800E3F905464EE60530E0602046FFF73CFA96
:1040C8000646204600F0A8FCE36880461B78492B8A
:1040D80000F056812946034632462046FCF750F840
:1040E800054637E60133E3602046452102F094FF98
:1040F80029E64268216B93681568023B0B442363E9
:1041080028460B4906F072FC002800F026817368E7
:10411800DB68032B0AD8DFE813F01801F100A500CB
:1041280016002046FCF764FA013096D1002511E606
:10413800A4ED020804EB0208FCEA0208B4EB02084A
:10414800B8EB020800252846AD4906F04FFC824628
:1041580098B32B786E2BE9D16B78772B01D0612B34
:10416800E4D15F21204602F057FF80462046FFF742
:10417800E3F9E36881461A78452A6ED0702A60D040
:10418800692AD3D15B786C2BD0D1204604F004FA8D
:1041980005462B464A463A212046FBF7F1FF4246A0
:1041A800034639212046FBF7EBFF32460346382108
:1041B8002046FBF7E5FF0546CCE5204604F0ECF980
:1041C8008046204604F0E8F9E16881460A784C2ADE
:1041D80000F08682542A00F07E82732A00F04C8216
:1041E800662A00F02B82A2F13003092B40F20F82DD
:1041F8006F2A00F00682692A00F0FD81742A00F017
:10420800E381204600F086FB05460028C1D00378EC
:10421800312B00F0DD80322B00F0CC80332B40F0C6
:10422800C780E3681A785F2A00F0BB80204604F054
:10423800B3F92A46034635212046FBF7A1FF054678
:10424800A7E75A78692A7FF471AF0233E360204602
:10425800452102F0E1FE05469BE70133E3600025B6
:1042680097E7002573681B685A78632A39D0204677
:1042780004F092F980462846624906F0B7FB50B32D
:104288002846614906F0B2FB28B128465F4906F086
:10429800ADFB002851D1204600F0BEFBE36805467F
:1042A8001B78492B09D1204600F0F6FC2A46034624
:1042B80004212046FBF764FF05462B46424637217A
:1042C8002046FBF75DFF3246034636212046FBF7C2
:1042D80057FF05463EE52046452102F09DFE05466E
:1042E800EBE71B78A3F16302012A02D9723B012B89
:1042F800BDD82046FFF720F98046BCE72B78702B05
:1043080002D06D2B7FF41CAD6A789A427FF418AD09
:10431800E3681A785F2A15D0204604F03DF9024672
:10432800372120461346FBF72BFF0346324620462B
:104338003521FBF725FF05460CE5204604F02CF94E
:104348000546BAE70133E360FAE4324620463421F1
:104358000023FBF715FF0546FCE42046FFF7ECF8C1
:10436800E3E77368032B3FF6E1AE01A252F823F0AE
:1043780053430008493D00086B4200084D410008BE
:10438800204600F089FC4246034604212046FBF7FC
:10439800F7FE2946034632462046FBF7F1FE05465E
:1043A800D8E40133E3602046452102F035FE40E7BA
:1043B8000025EEE66B68032BFAD801A252F823F029
:1043C800C145000835420008AF4400081D440008F4
:1043D8004168226B8B68D1F800A0023B1344236329
:1043E80050460B4906F002FB002800F0DE806B689F
:1043F800DB68032BDCD8DFE803F0DFB7580F00BF1A
:1044080004EB0208FCEA0208B4EB0208B8EB020865
:10441800A4ED02084FF0000A5046CC4906F0E6FA2F
:10442800A8B39AF800306E2BC2D19AF80130772BD6
:1044380001D0612BBCD15F21204602F0EDFD824600
:104448002046FFF779F8E36883461A78452A00F092
:104458008780702A79D0692AAAD15B786C2BA7D17A
:10446800204604F099F803465A463A212046FBF7BD
:1044780087FE5246034639212046FBF781FE2A462D
:10448800034638212046FBF77BFE054681E6204699
:1044980004F082F88246204604F07EF883462046DF
:1044A80004F07AF8DFE74FF0000A6B681B685A7867
:1044B800632A38D0204604F06FF883465046A44952
:1044C80006F094FA48B35046A24906F08FFA20B194
:1044D8005046A14906F08AFA90BB204600F09CFAA3
:1044E800E36882461B78492B09D1204600F0D4FBAB
:1044F8005246034604212046FBF742FE82465A46AE
:10450800534637212046FBF73BFE2A460346362111
:104518002046FBF735FE05463BE62046452102F0DE
:104528007BFD8246EBE71B78A3F16302012A02D9DF
:10453800723B012BBED82046FEF7FEFF8346BDE73F
:10454800204604F029F88246D9E75A78692A7FF488
:104558002FAF0233E3602046452102F05DFD82E77C
:104568000133E36000207EE79AF80030702B02D018
:104578006D2B7FF45BAE9AF801209A427FF456AE19
:10458800E3681A785F2A14D0204604F005F802463A
:10459800372120461346FBF7F3FD03462A462046FB
:1045A8003521FBF7EDFD0546F3E52046FEF7C4FF90
:1045B800F3E70133E36039E62A4620463421002335
:1045C800FBF7DEFD0546E4E54B786C2B7FF419AE6E
:1045D8002046FEF7B1FF0546E1680231E16020465A
:1045E800452102F019FD2A46034630212046FBF7F3
:1045F800C7FD0546CDE54A786C2A7FF402AE5546DC
:10460800EBE74B786E2B7FF4FCAD0231E16020467E
:1046180000F002FA054600283FF4BBADE3681B78BA
:10462800492B7FF4B6AD204600F036FB2A460346F8
:1046380004212046FBF7A4FD0546AAE54B78702B1C
:104648007FF4DFAD8B1CE3608B78542B27D1504669
:104658000331E1606269A3699A42BFF6A9AE0C23EF
:1046680003FB02F321690132CD1862613FF491AD79
:104678000622CA5468608CE54A78722A15D0702AD6
:104688007FF4BFAD0231E160204603F085FF534659
:10469800024649212046FBF773FD054679E5204689
:1046A800FBF7A6FF0130D5D17DE70231E160204656
:1046B800FEF742FF0546204600F0AEF9E368824661
:1046C8001B78492B11D02A46034601212046FBF7C7
:1046D80057FD05465DE52046FBF7A2FF054658E570
:1046E8002046FEF7C9FE054653E5204600F0D4FAF9
:1046F8005246034604212046FBF742FD2A4603465C
:1047080001212046FBF73CFD054642E50025E3680C
:1047180045210233E360204602F07EFC2A46034628
:1047280030212046FBF72CFD0546FFF713BB742B01
:104738007FF4F0AA03796C2B7FF4ECAA2046FEF7ED
:10474800FBFE0546E3E71046FEF7B8BF04EB020898
:10475800FCEA0208B4EB0208B8EB02085A78692AA6
:104768007FF4F6AB0233E3602046452102F054FCA7
:10477800FFF78FBB0133E3600020FFF78ABB2046B9
:1047880003F00AFF0646204603F006FF804620464F
:1047980003F002FFFFF77DBB204603F0FDFE06464F
:1047A800FFF7BABB2046452102F036FC0646FFF764
:1047B800B3BB1B78A3F16302012A03D9723B012B17
:1047C8003FF681AB2046FEF7B7FE8046FFF77FBB7A
:1047D8002046FEF7B1FEFFF7FDBB0133E360FEF7AD
:1047E80064BF0133E3602046452102F015FCFEF763
:1047F8005FBF204600F050FA424603460421204697
:10480800FBF7BEFC2946034632462046FBF7B8FCB8
:10481800FEF754BF30B5C26883B013780021019108
:1048280043B3452B26D02E2B24D0044601AD16E0E9
:104838004F2B16D02046FEF77FFE2E210023C8B14D
:1048480002462046FBF79CFC286098B1E26800F11C
:104858000805137843B1452B06D02E2B04D0522BD4
:10486800E6D15378452BE5D1019818B1836823B177
:1048780003B030BD002003B030BD4268117827294D
:10488800F6D15268117C0929F2D15168226B521A6B
:1048980022634360ECE700BF70B5C36804461A782A
:1048A8004A2A0DD071B90D462046FFF7B3FF0346DB
:1048B80070B120462A46BDE870402921FBF760BC4C
:1048C8000133C3602046FEF737FE05460028EBD1CA
:1048D800002070BDC3681A78462A01D000207047AE
:1048E80010B55A1CC2605A780121592A04BF0233F4
:1048F800C3600446FFF7D0FF01462046FBF7FEFCE5
:10490800E3681A78452A01D0002010BD0133E3601E
:1049180010BD00BF2DE9F041C36884461A7812B370
:104928005A1CC2605A781F7802BB9646394E3D24FD
:104938000022A31A03EBD37302EB63031901755822
:1049480031442878874207D0B8420AD91C46A24287
:10495800EFD10020BDE8F0816878864540D07045E9
:10496800F4D85A1CF3E796461746DFE79A1CC2604C
:10497800762F044693F801E01CD1AEF13005EBB276
:10498800092BD3D8FBF77EFE6369A16902468B42E7
:10499800DFDA03EB430120690133890063614318BF
:1049A800D7D0002AD5D0322444545D609A60184686
:1049B800BDE8F081632FB9D1BEF1760FB6D1436B54
:1049C800856BB3FA83F35B098363FEF7B5FDA563D3
:1049D800024633212046BDE8F0410023FBF7D0BB57
:1049E800DCF81430DCF818209342B2DA03EB430207
:1049F800DCF8100001339200CCF81430831805D08D
:104A08003124845459601846BDE8F0811846BDE841
:104A1800F08100BF00E50208F8B5C26804461378C3
:104A2800A3F1300109292ED9A3F16101192933D93C
:104A3800A3F14301012971D94C2B00F08D80552B2E
:104A480040F0888053786C2B30D0742B40F08280F3
:104A5800531CC3605178742900F0C68042294FF076
:104A6800000517D10133E3602046FBF70BFE2A4609
:104A780003464A212046FBF783FBE368054619787D
:104A88004229EFD006E0FBF7FDFD0546E3681978FB
:104A98004229E7D02846F8BDFFF73CFF054610B18C
:104AA8000378312B65D0E3681978F1E7531CC360AC
:104AB80051786C29D2D10232C260FFF7ABFEE368AD
:104AC8000646002800F0E28019784529C6D101334E
:104AD800E3602046FBF78CFD0028C0F29F806369E5
:104AE800A269934280F29A8003EB43022169920003
:104AF80001338D18636100F0918044238B546E60FC
:104B0800A860236A626A934280F28880E1695A1C2D
:104B180041F82350E36822621978B9E7C06AA8B15E
:104B2800017889B9216B83680B4423631178432981
:104B38007ED0442979D15378303B052B0AD8DFE859
:104B480003F02F4750094D4A1829EBD0432B6FD05B
:104B5800442BF0D00020F8BD0132C260FBF792FD73
:104B680005460028F6D02046FBF77CFD00289AD1A0
:104B7800F0E74268216B936810680B44073323639E
:104B8800444905F033FF00288DD12046FBF77AFD14
:104B98002A46034635212046FBF7F2FA054682E706
:104BA8004FF0010E6169A569931CA942E36039DAE7
:104BB80001EB41062769B6000131BD19616131D0A9
:104BC80080B30821B95585F804E0A86091785FE7BB
:104BD8004FF0020EE6E74FF0050EE3E74FF0040E44
:104BE800E0E74FF0030EDDE70232C260FBF700FD9D
:104BF800002813DB6369A26993420FDA03EB4302CF
:104C08002169920001338D18636107D046238B54C4
:104C18006860236A626A9342FFF678AFE36800250A
:104C2800197835E79178002532E7134600252FE7F4
:104C38005378313B042B8DD8DFE803F00325221F7E
:104C48001C004FF0010E6169A569931CA942E3603D
:104C5800E8DA01EB41062769B6000131BD19616147
:104C6800E0D00028DED00721B95585F804E0A86017
:104C780091780DE74FF0050EE5E74FF0040EE2E7F7
:104C88004FF0030EDFE74FF0020EDCE70546197818
:104C9800FEE600BFC4EB02082DE9F04FC16885B0FD
:104CA8000B78C76A493B012B00F296804A1CC26008
:104CB8004B78452B00F0A981834604AC002144F8C9
:104CC800041D493B0F2B69D8DFE803F0636368468E
:104CD800686868686868686868686808511C0126B8
:104CE800CBF80C10DBF83450CBF8346053784C2BED
:104CF80000F0EB80542B00F0EF80732B00F08780DE
:104D0800662B00F09A80A3F13000092851D96F2B47
:104D180049D0692B00F0B880742B00F0CB8058463E
:104D2800FFF7F8FD064600286DD00378312B00F018
:104D3800DA80322B00F03D81332B64D1DBF80C3064
:104D48001A785F2A40F054810133CBF80C3058466A
:104D5800452102F061F94EE15846FEF78DFB024607
:104D6800002A39D058462F210023FBF709FA206082
:104D780090B3DBF80C2000F108041378452BA0D180
:104D880003980132CBF80C20CBF82C7005B0BDE8A5
:104D9800F08F5846FFF780FF0246E1E75846FEF7D6
:104DA800CBFB0246DCE793786E2BB8D10332CBF805
:104DB8000C205846FFF730FE0646002800F0A78270
:104DC800DBF80C301978492900F002810246CBF84B
:104DD80034501978452903D0002005B0BDE8F08F7C
:104DE8000133CBF80C30BBE74FF000094846DE49E9
:104DF80005F0FCFD8046002800F0CE8199F80030CF
:104E08006E2B00F04F81DBF80C300022DFE793783F
:104E1800722B00F02681702B81D10332CBF80C2045
:104E2800584603F0B9FB0023024649215846FBF7D0
:104E3800A7F9DBF80C300246C9E79378702B7FF4AA
:104E48006EAFD31CCBF80C30D378542B40F02381B1
:104E58000432CBF80C200020DBF81430DBF81810F3
:104E68008B42D0DADBF810105A1C03EB4303CBF863
:104E7800142011EB830200F0F180062601F823606C
:104E88005060DBF80C30A2E793786C2B7FF447AFC7
:104E980000260231CBF80C105846452102F0BCF828
:104EA8003246034630215846FBF76AF9DBF80C30E6
:104EB80002468CE793786C2B7FF431AF5846FEF7A7
:104EC8003BFBDBF80C100646E3E75846FEF7D4FA3E
:104ED800DBF80C3002467AE75846FBF7A1FBDBF813
:104EE8000C30024673E7D0F80480DBF83020D8F89D
:104EF8000830D8F80090023B1344CBF830304846CD
:104F08009A4905F073FD002800F02381D8F80C3089
:104F1800032B3FF678AF01A252F823F0A74F000801
:104F280027500008394F0008F54D00084FF00009D8
:104F380073681B685A78632A00F02081584603F08A
:104F48002BFB804648468A4905F050FD002800F0B2
:104F580004814846874905F049FD30B148468649ED
:104F680005F044FD002840F0D8815846FFF754FD6D
:104F7800DBF80C3081461B78492B00F0248242462E
:104F88004B4637215846FBF7FBF832460346362195
:104F98005846FBF7F5F8DBF80C30024617E73246BF
:104FA800002358463421FBF7EBF8DBF80C300246B7
:104FB8000DE77368032B3FF626AF01A252F823F0E2
:104FC800A74F0008F94F0008354F0008F14D0008B9
:104FD8005846FFF761FE3246034604215846FBF760
:104FE800CFF8DBF80C300246F1E60133CBF80C3091
:104FF800584603F0D1FA0346324658463521FBF7A6
:10500800BFF8DBF80C300246E1E600221346023115
:10501800C1602F2105B0BDE8F04FFBF7B1B899F892
:105028000030702B01D06D2BE2D199F801209A4203
:10503800DED1DBF80C301A785F2AD6D0584603F058
:10504800ABFA0246372158461346FBF799F8034650
:10505800324658463521FBF793F80246DBF80C3008
:10506800B5E60332CBF80C205846FEF765FA8046C1
:105078005846FFF7D1FCDBF80C3081461B78492BEA
:1050880054D00346424631465846FBF779F8DBF8D8
:105098000C3002469BE65846FBF7AAFA01307FF42B
:1050A800DBAEDAE799F80130772B02D0612B7FF479
:1050B800AAAE5F21584601F0AFFF81465846FEF779
:1050C8003BFADBF80C3080461A78452A00F06281FA
:1050D800702A00F0E681692A40F01D815A786C2A0E
:1050E80040F019810233CBF80C304521584601F0C5
:1050F80093FF3021034600225846FBF741F88246C9
:10510800424653463A215846FBF73AF84A46034680
:1051180039215846FBF734F83246034638215846B9
:10512800FBF72EF8DBF80C30024650E65846FFF73E
:10513800B3FD4A46034604215846FBF721F8424688
:10514800034631465846FBF71BF8DBF80C3002469D
:105158003DE65846FEF7F0F979E75846452101F053
:105168005BFF81460BE700BF04EB0208A4ED0208D1
:10517800FCEA0208B4EB0208B8EB02081B78A3F1BA
:105188006302012A03D9723B012B3FF6D7AE58467A
:10519800FEF7D2F98046D5E6DBF80C301A784C2AAF
:1051A80000F02A82542A00F0AE83732A00F0868128
:1051B800662A00F0C881A2F13001092940F2348141
:1051C8006F2A00F02A81692A00F01E82742A00F0F2
:1051D800A2835846FFF79EFB8146002800F0FA8319
:1051E8000378312B00F04284322B00F09F83332B5D
:1051F80040F02082DBF80C301A785F2A01F0DB805F
:10520800584603F0C9F903464A4658463521FAF785
:10521800B7FF8146DBF80C2013784C2B00F02F8267
:10522800542B00F09D82732B00F07581662B00F0E3
:10523800A381A3F13001092940F218816F2B00F0F6
:105248000E81692B00F00182742B00F053835846BD
:10525800FFF760FB8046002800F0E2820378312BDC
:1052680000F02183322B00F08882332B40F0148227
:10527800DBF80C301A785F2A00F0FC87584603F0F8
:105288008BF90346424658463521FAF779FF80469E
:10529800DBF80C301A784C2A00F0F981542A00F017
:1052A8006782732A00F02281662A00F07F81A2F1CA
:1052B8003001092940F299806F2A00F08F80692A0D
:1052C80000F0F281742A00F042825846FFF722FB70
:1052D800824600283FF414AF0378312B00F0958400
:1052E800322B00F0F183332B40F0AA81DBF80C302D
:1052F8001A785F2A00F02887584603F04DF952467D
:10530800034635215846FAF73BFF8246F8E602463F
:10531800DBF80C305BE5002259E5DBF80C301A7835
:105328004C2A00F03C85542A00F01A85732A00F0B4
:10533800F981662A00F0CF81A2F13001092935D917
:105348006F2A2DD0692A00F07586742A00F06B85C3
:105358005846FFF7DFFA8146002800F0B18303784A
:10536800312B00F0BB84322B00F00A86332B40F03F
:10537800A783DBF80C301A785F2A00F0C0875846FC
:1053880003F00AF94A46034635215846FAF7F8FE6B
:105398008146F4E50133CBF80C304FF0000AAFE654
:1053A8005A786E2AD4D10233CBF80C305846FFF71E
:1053B80033FB8146002800F08383DBF80C301B7830
:1053C800492B7FF4DCAD5846FFF766FC4A46034696
:1053D80004215846FAF7D4FE8146D0E55A786E2A59
:1053E8007FF473AF0233CBF80C305846FFF714FB49
:1053F800824600283FF484AEDBF80C301B78492B3A
:105408007FF47EAE5846FFF747FC52460346042118
:105418005846FAF7B5FE824672E65A786E2A7FF445
:10542800D8AE0233CBF80C305846FFF7F5FADBF864
:105438000C208146137800283FF4EFAE492B7FF407
:10544800ECAE5846FFF728FC4A4603460421584666
:10545800FAF796FEDBF80C2081461378DDE65378E0
:105468006E2B7FF4F4AE931CCBF80C305846FFF744
:10547800D3FADBF80C3080461A7800283FF40BAFDB
:10548800492A7FF408AF5846FFF706FC4246034610
:1054980004215846FAF774FEDBF80C3080461A7877
:1054A800F9E65A78692A7FF436AF0233CBF80C3024
:1054B8005846452101F0B0FD824621E65A78722A05
:1054C80000F09484702A7FF484AE0233CBF80C3059
:1054D800584603F061F84346024649215846FAF710
:1054E8004FFEDBF80C208146137896E65A78722A2C
:1054F80000F03C84702A7FF4E8AE0233CBF80C301D
:10550800584603F049F84921024600235846FAF75D
:1055180037FE8246F4E55378722B00F0A083702B97
:105528007FF495AE931CCBF80C30584603F034F852
:105538000246584649210023FAF722FEDBF80C30D0
:1055480080461A78A7E65A78702A7FF442AE9A1CE9
:10555800CBF80C209A78542A40F03C84DA1CCBF81B
:105568000C20DBF81430DBF818108B42C0F21D84D5
:1055780013784FF0000950E65378702B7FF467AE2C
:10558800931CCBF80C309378542B40F04785D31CF0
:10559800CBF80C300020DBF81420DBF818108A4216
:1055A800C0F227851A784FF0000874E65A78702AF6
:1055B8007FF48BAE9A1CCBF80C209A78542A40F0D2
:1055C80045830333CBF80C300020DBF81430DBF8CC
:1055D8001820934234DADBF81020591C03EB4303FC
:1055E80012EB830ACBF814103FF48AAD062102F8B7
:1055F8002310CAF8040083E55846FDF73DFFDBF8A1
:105608000C208146137808E65A786C2A7FF4E1ADBD
:105618000233CBF80C304521584601F0FDFC4246D8
:10562800034630215846FAF7ABFDDBF80C208146DB
:105638001378F2E5DBF80C204FF000091378ECE55D
:105648004FF0000A5CE54FF0000953786C2B7FF4AB
:10565800FEAD4FF00008DBF80C3045210233CBF8E3
:105668000C30584601F0D8FC4246034630215846D3
:10567800FAF786FDDBF80C3080461A780BE65846B8
:10568800FDF7FAFEDBF80C3080461A7803E6584638
:10569800FDF7F2FE824633E5DBF80C304FF00008E8
:1056A8001A78F8E54FF000085B786C2B7FF40DAEA4
:1056B8004FF0000ADBF80C3045210233CBF80C30F0
:1056C800584601F0A9FC5246034630215846FAF7DD
:1056D80057FD824614E55A78702A7FF439AE9A1C31
:1056E800CBF80C209A78542A40F0E4810333CBF8A5
:1056F8000C300020DBF81420DBF818309A4280F2D6
:10570800DF810C2303FB02F3DBF81010013211EBED
:105718000309CBF814203FF432AC0622CA54C9F866
:1057280004002CE45A78722A00F0AD85702A7FF4C0
:105738000FAE0233CBF80C30584602F02DFF49214A
:10574800024600235846FAF71BFD814617E45B78AA
:105758006C2B7FF4BAAD5846FDF7EEFE8246A9E7FA
:105768005846FAF75DFFDBF80C3080461A7892E568
:105778005846FAF755FF8246C2E4D8F80430032B9E
:105788008AD801A252F823F0A758000885520008C9
:1057980031580008A15700084FF0000A5046D24976
:1057A80005F024F9002800F0E5859AF800306E2B02
:1057B8007FF472AF9AF80130772B02D0612B7FF417
:1057C8006BAF5F21584601F027FC82465846FDF72B
:1057D800B3FEDBF80C3000901A78452A00F0B88543
:1057E800702A00F0AE85692A40F0A7855A786C2A9D
:1057F8007FF458AF584602F0CFFE0346009A3A218C
:105808005846FAF7BDFC5246034639215846FAF77E
:10581800B7FC4246034638215846FAF7B1FC8046A1
:10582800DBF80C301A7836E54FF0000AD8F8043067
:105838001B685A78632A00F06B85584602F0ACFE64
:1058480000905046A94905F0D1F8002800F0AC8531
:105858005046A74905F0CAF830B15046A54905F0A9
:10586800C5F8002840F063855846FFF7D5F8DBF8FF
:105878000C3082461B78492B00F07085009A5346FD
:1058880037215846FAF77CFC4246034636215846EB
:10589800FAF776FCDBF80C3080461A78FBE44246CF
:1058A8005846342147E6D0F804C0DBF83020DCF84D
:1058B8000830DCF800A0023B1344CBF830305046E7
:1058C8008D49CDF800C005F091F8DDF800C000283A
:1058D80000F06685DCF80C30032B3FF6DDAE01A244
:1058E80052F823F0A7580008295D00083558000829
:1058F800A557000853786C2B7FF4A9AC5846FDF7E0
:105908001BFE8046A7E65846FAF78AFEDBF80C200D
:105918008146137881E45B786C2B7FF45AAC584647
:10592800FDF70AFEDBF80C30804671E6D9F8043042
:10593800032B3FF67FAE01A252F823F05D5A000810
:1059480009520008E5590008555900084FF00008A9
:105958004046654905F04AF8002800F0978398F812
:1059680000306E2B7FF466AE98F80130772B02D0AA
:10597800612B7FF45FAE5F21584601F04DFB8046F6
:105988005846FDF7D9FDDBF80C2082461378452BE5
:1059980000F0C283702B00F0B883692B40F0B1830C
:1059A80053786C2B7FF44FAE584602F0F5FD034652
:1059B80052463A215846FAF7E3FB42460346392154
:1059C8005846FAF7DDFB4A46034638215846FAF7A7
:1059D800D7FB8146DBF80C2013781EE44FF0000853
:1059E800D9F804301B685A78632A00F04183584676
:1059F80002F0D2FD824640463C4904F0F7FF0028F9
:105A080000F0308340463A4904F0F0FF30B1404698
:105A1800384904F0EBFF002840F044835846FEF76D
:105A2800FBFFDBF80C3080461B78492B00F08183A4
:105A38005246434637215846FAF7A2FB4A460346E0
:105A480036215846FAF79CFBDBF80C208146137880
:105A5800FFF7E3BB4A46002358463421FAF790FB88
:105A6800DBF80C2081461378FFF7D7BBD0F804A0E9
:105A7800DBF83020DAF80830DAF80080023B13440B
:105A8800CBF8303040461C4904F0B0FF002800F045
:105A9800D882DAF80C30032B3FF6CCAD01A252F8CD
:105AA80023F000BF5D5A0008A95F0008E959000803
:105AB800595900085846FAF79BFD01307FF41AAE91
:105AC8004FF00009FFF75BBADAF80430032B3FF612
